:100000000C9499000C94C1000C94C1000C94C10094
:100010000C94C1000C94C1000C94C1000C94C1005C
:100020000C94C1000C94C1000C94C1000C94C1004C
:100030000C94C1000C94C1000C94C1000C94C1003C
:100040000C94100A0C94C1000C94DE090C94B809AD
:100050000C94C1000C94C1000C94C1000C94C1001C
:100060000C945A0A0C94C10007634236B79BD8A778
:100070001A39685618AEBAAB558C1D3CB7CC5763CD
:10008000BD6DEDFD753EF6177231BF000000803F7B
:1000900008000000BE922449123EABAAAA2ABECD97
:1000A000CCCC4C3E00000080BEABAAAAAA3E000009
:1000B0000000BF000000803F000000000008417801
:1000C000D3BB4387D1133D190E3CC3BD4282AD2B38
:1000D0003E68EC8276BED98FE1A93E4C80EFFFBE30
:1000E00001C4FF7F3F000000000000000000250069
:1000F00028002B0004040404040404040202020285
:1001000002020303030303030102040810204080DA
:100110000102040810200102040810200000000859
:1001200000020100000304070000000000000000BE
:10013000790B11241FBECFEFD8E0DEBFCDBF12E098
:10014000A0E0B1E0E8E8F6E202C005900D92A23628
:10015000B107D9F723E0A2E6B2E001C01D92A03FAB
:10016000B207E1F710E0C9E9D0E004C02197FE0131
:100170000E94F911C839D107C9F70E94C00B0C942D
:1001800042130C94000008950895AF92BF92CF924D
:10019000DF92EF92FF920F931F93CF93DF936C0147
:1001A0007B018B01040F151FEB015E01AE18BF0828
:1001B000C017D10759F06991D601ED91FC910190DA
:1001C000F081E02DC6010995892B79F7C501DF91F2
:1001D000CF911F910F91FF90EF90DF90CF90BF9044
:1001E000AF900895FC01538D448D252F30E0842F6E
:1001F00090E0821B930B541710F0CF96089501974F
:100200000895FC01918D828D981761F0A28DAE0F3B
:10021000BF2FB11D5D968C91928D9F5F9F73928FC2
:1002200090E008958FEF9FEF0895FC01918D828DEE
:10023000981731F0828DE80FF11D858D90E00895BB
:100240008FEF9FEF0895FC01918D228D892F90E013
:10025000805C9F4F821B91098F73992708958CE3CF
:1002600093E00E94230121E0892B09F420E0822FF2
:10027000089580E090E0892B29F00E942F018111E0
:100280000C9400000895FC01A48DA80FB92FB11D96
:10029000A35ABF4F2C91848D90E001968F739927BC
:1002A000848FA689B7892C93A089B1898C9183709A
:1002B00080648C93938D848D981306C00288F38993
:1002C000E02D80818F7D80830895EF92FF920F93C0
:1002D0001F93CF93DF93EC0181E0888F9B8D8C8DF2
:1002E00098131AC0E889F989808185FF15C09FB7E6
:1002F000F894EE89FF896083E889F98980818370A9
:10030000806480839FBF81E090E0DF91CF911F9157
:100310000F91FF90EF900895F62E0B8D10E00F5F78
:100320001F4F0F731127E02E8C8D8E110CC00FB64E
:1003300007FCFACFE889F989808185FFF5CFCE01E6
:100340000E944301F1CFEB8DEC0FFD2FF11DE35A1D
:10035000FF4FF0829FB7F8940B8FEA89FB89808169
:100360008062CFCFCF93DF93EC01888D8823B9F0E3
:10037000AA89BB89E889F9898C9185FD03C08081B0
:1003800086FD0DC00FB607FCF7CF8C9185FFF2CF2D
:10039000808185FFEDCFCE010E944301E9CFDF913F
:1003A000CF91089590E0FC01E45EFE4F2491FC01A2
:1003B000E85FFE4F3491FC01EC50FF4FE491EE23D7
:1003C000C9F0222339F0233001F1A8F4213019F1CA
:1003D000223029F1F0E0EE0FFF1FE651FF4FA5910B
:1003E000B4918FB7F894EC91611126C030953E23FB
:1003F0003C938FBF08952730A9F02830C9F02430EE
:1004000049F7809180008F7D03C0809180008F77B5
:1004100080938000DFCF84B58F7784BDDBCF84B538
:100420008F7DFBCF8091B0008F778093B000D2CFCB
:100430008091B0008F7DF9CF3E2BDACF3FB7F89493
:100440008091AB029091AC02A091AD02B091AE024E
:1004500026B5A89B05C02F3F19F00196A11DB11D1F
:100460003FBFBA2FA92F982F8827BC01CD01620F5B
:10047000711D811D911D42E0660F771F881F991F16
:100480004A95D1F708958F929F92AF92BF92CF92E3
:10049000DF92EF92FF924B015C010E941E026B0102
:1004A0007C010E941E026C197D098E099F09683E1D
:1004B000734081059105A8F321E0821A9108A108F3
:1004C000B10888EEC80E83E0D81EE11CF11C81142F
:1004D0009104A104B10429F7FF90EF90DF90CF9031
:1004E000BF90AF909F908F900895089508952091A8
:1004F0008302260F3327331F21323105ECF420917C
:100500001203FC0190E080E0243069F082E008955D
:10051000A09183022191AC014D595D4FA40FB52FDD
:10052000B11D2C930196861798F380918302680F72
:100530006093830280E0089581E008951092120391
:1005400081E0809311031092EC0261E082E10E944D
:10055000D20161E083E10E94D201E9EBF0E0808109
:100560008E7F808380818D7F808388E48093B80034
:1005700085E48093BC000895CF93DF9391E090933E
:1005800062028823B9F0C091B800D091BA0080917E
:10059000BC008A7B8093BC0060E082E10E94D201B3
:1005A00060E083E10E94D2010E949E02D093BA00D3
:1005B000C093B800DF91CF910895CF92DF92EF9270
:1005C000FF920F931F93CF93DF93D0913B0381E072
:1005D000D13208F09CC0C0913A030E941E026B0108
:1005E0007C018091120381116CC082E08093120320
:1005F00081E0809311038FEF8093100310920F031B
:10060000D0930E03AAE1B3E0EEEEF2E080E0D8135F
:100610008DC01092ED028091ED02CC0FC82BC093DB
:10062000ED028091EC02813009F084C01092EC025E
:100630000E941E026B017C018091ED028093BB0041
:100640008091140390911503A0911603B0911703A4
:10065000892B8A2B8B2BA1F00E941E020091140380
:100660001091150320911603309117036C197D0921
:100670008E099F09061717072807390708F442C093
:100680008091BC0083FDD8CF85EC8093BC000E9494
:100690001E026B017C0180911203823009F44CC070
:1006A000809110038F3F09F469C08091100380325C
:1006B00009F466C080911003803309F463C084E0BC
:1006C00026C08091140390911503A0911603B09158
:1006D0001703892B8A2B8B2B09F483CF0E941E02D0
:1006E0000091140310911503209116033091170304
:1006F0006C197D098E099F09061717072807390706
:1007000008F06FCF809113030E94BC0285E0109225
:10071000190310923B0310921803DF91CF911F91A0
:100720000F91FF90EF90DF90CF9008959D9191935E
:100730008F5F6DCF85EEA9CF809114039091150343
:10074000A0911603B0911703892B8A2B8B2B09F4E8
:10075000A2CF0E941E020091140310911503209154
:100760001603309117036C197D098E099F0906172E
:1007700017072807390708F08ECFC4CF80E0C7CF0E
:1007800082E0C5CF83E0C3CFCF92DF92EF92FF929A
:100790000F931F93CF93C82F813208F096C00E9409
:1007A0001E026B017C0180911203811169C081E0FE
:1007B00080931203809311039FEF90931003109284
:1007C0000F039C0F90930E038093ED028091ED0236
:1007D0008E6E8093ED028091EC02813009F077C03B
:1007E0001092EC020E941E026B017C018091ED02CE
:1007F0008093BB008091140390911503A091160380
:10080000B0911703892B8A2B8B2BA1F00E941E021B
:1008100000911403109115032091160330911703D2
:100820006C197D098E099F090617170728073907D4
:1008300008F447C08091BC0083FDD8CF85EC80933D
:10084000BC000E941E026B017C018091120381306A
:1008500009F43FC080910F038C1710F4C0910F036F
:10086000AEEEB2E0ECECF2E080E08C1354C08C2FE2
:10087000CF911F910F91FF90EF90DF90CF9008954F
:100880008091140390911503A0911603B091170362
:10089000892B8A2B8B2B09F486CF0E941E02009194
:1008A00014031091150320911603309117036C194E
:1008B0007D098E099F09061717072807390708F0D1
:1008C00072CF809113030E94BC02C0E0D0CF85EEAE
:1008D000B6CF8091140390911503A0911603B091A7
:1008E0001703892B8A2B8B2B09F4AFCF0E941E0292
:1008F00000911403109115032091160330911703F2
:100900006C197D098E099F090617170728073907F3
:1009100008F09BCFD6CF9D9191938F5FA6CF08957E
:10092000E091B4028091B302E81730F4F0E0E453B0
:10093000FD4F808190E008958FEF9FEF0895909193
:10094000B4028091B3022FEF3FEF981748F4E92FDC
:10095000F0E0E453FD4F208130E09F5F9093B402BC
:10096000C90108958091B3029091B402891B990B3B
:100970000895CF92DF92EF92FF920F931F93CF9340
:10098000DF937C01CB018A0120911803222389F097
:10099000EB016B01C40ED51ECC15DD0569F0699124
:1009A000D701ED91FC910190F081E02DC7010995EF
:1009B000F3CF642F0E947702C801DF91CF911F917E
:1009C0000F91FF90EF90DF90CF900895CF93DF933A
:1009D0001F92CDB7DEB76983209118032223F9F067
:1009E00020913B03203258F021E030E0FC013383BA
:1009F000228390E080E00F90DF91CF910895809165
:100A00001903E82FF0E0E65EFC4F998190838F5F39
:100A10008093190380933B0381E090E0ECCF61E089
:100A2000CE0101960E947702F7CFCF93C82F81E0C5
:100A30008093180387E780933A031092190310926A
:100A40003B0364EF89ED93E00E94E6046C2F89ED8F
:100A500093E00E94E604CF910C94DD0290E080E0E8
:100A60000895FC0101900020E9F73197AF01481B80
:100A7000590BBC018CE393E00C94C5008F929F92BC
:100A8000AF92BF920F931F93CF93DF93CDB7DEB793
:100A9000A1970FB6F894DEBF0FBECDBF19A24230AA
:100AA00008F44AE08E010F5D1F4F842E912CB12C6B
:100AB000A12CA50194010E94A511E62FB901CA013C
:100AC000EA30F4F4E05DD801EE938D01232B242B62
:100AD000252B79F790E080E0109719F0CD010E9466
:100AE0003105A1960FB6F894DEBF0FBECDBFDF91E2
:100AF000CF911F910F91BF90AF909F908F900895CD
:100B0000E95CE1CFCF93DF930E943105EC0188E3EC
:100B100091E00E9431058C0F9D1FDF91CF910895C8
:100B20000C9431054F925F926F927F928F929F92B9
:100B3000AF92BF92CF92DF92EF92FF920F931F93EB
:100B4000CF936B017C01742EAC019B010E945B1062
:100B5000882399F08BE391E0CF911F910F91FF9043
:100B6000EF90DF90CF90BF90AF909F908F907F904D
:100B70006F905F904F900C94310546015701E894B7
:100B8000B7F82FEF3FEF4FE75FE7C501B4010E94D1
:100B90005B1081110DC02FEF3FEF4FE75FE7C501FD
:100BA000B4010E94410E18161CF48FE391E0D4CFDB
:100BB0002FEF3FEF4FE75FE4C701B6010E94990FA7
:100BC00018161CF483E491E0C7CF2FEF3FEF4FE7F7
:100BD0005FECC701B6010E94410E87FDF3CF20E014
:100BE00030E0A901C701B6010E94410E10E000E00B
:100BF00087FF0AC06DE28CE393E00E9465018C01DF
:100C0000F7FAF094F7F8F094C0E060E070E080E06C
:100C10009FE37C1641F020E030E040E251E40E9486
:100C2000460ECF5FF6CFA70196010E94D50D2B018E
:100C30003C010E94B80E4B015C014AE00E943E0557
:100C40007C01E00EF11ECC23C1F1C501B4010E946C
:100C5000E70E9B01AC01C301B2010E94D40D4B0110
:100C60005C016EE28CE393E00E946501E80EF91EE0
:100C7000C15018F120E030E040E251E4C501B40178
:100C80000E949E0F2B013C010E94B80E4B01B12C1B
:100C9000A12C4AE0C501B4010E943E05E80EF91EF0
:100CA000C501B4010E94E70E9B01AC01C301B20172
:100CB0000E94D40D4B015C01DBCFC701CF911F9186
:100CC0000F91FF90EF90DF90CF90BF90AF909F90EB
:100CD0008F907F906F905F904F900895CF92DF92AA
:100CE000EF92FF92CF93DF936B017C01F7FE1FC061
:100CF0006DE28CE393E00E946501EC0166277727A3
:100D0000CB016C197D098E099F094AE00E943E05BE
:100D1000C80FD91F88E391E00E9431058C0F9D1FF9
:100D2000DF91CF91FF90EF90DF90CF9008954AE050
:100D30000E943E05EC01EECF1F93CF93DF93EB01B2
:100D400091E09093180397E790933A031092190358
:100D500010923B03682F89ED93E00E94E6040E9405
:100D6000DD0282E00E94C4031092B4028093B302B9
:100D700089ED93E00E949F04182F89ED93E00E9473
:100D80009F0420E0822B912B99838883DF91CF9160
:100D90001F910C94DD020F931F93CF93DF9300D02C
:100DA000CDB7DEB78C018EE20E94150565E070E0DC
:100DB00080E090E00E944302BE016F5F7F4F86EFAC
:100DC0000E949C0689819A81B0E0A0E0F8018083AE
:100DD0009183A283B3830F900F90DF91CF911F91E6
:100DE0000F9108950F931F93CF93DF9300D0CDB74A
:100DF000DEB78B01BE016F5F7F4F0E949C06898129
:100E00009A81F801918380830F900F90DF91CF91A9
:100E10001F910F910895CF93DF93EB0191E0909391
:100E2000180397E790933A031092190310923B032B
:100E3000682F89ED93E00E94E6040E94DD0281E0C4
:100E40000E94C4031092B4028093B30289ED93E030
:100E50000E949F048883DF91CF910C94DD020C9453
:100E6000AA123F924F925F926F927F928F929F92BF
:100E7000AF92BF92CF92DF92EF92FF920F931F93A8
:100E8000CF93DF93CDB7DEB72B970FB6F894DEBFC5
:100E90000FBECDBF8B01FB01349620E2DF011D9216
:100EA0002A95E9F744E250E060E070E0F801408301
:100EB000518362837383FC0183819481A581B68110
:100EC000F80184839583A683B78386E090E0A0E051
:100ED000B0E080879187A287B387108A118A128A2F
:100EE000138A19821A821B821C82CE0101960E94EB
:100EF000CB063090B502832D8295880F880F807CB9
:100F00008C5C0E941505B1E068E070E080E090E044
:100F10003B1689F065E070E080E090E03B1658F009
:100F2000E2E06EE070E080E090E03E1621F06AE1E1
:100F300070E080E090E00E944302BE016B5F7F4F53
:100F400086EF0E949C06CD80DE80F12CE12CFE2CE9
:100F5000ED2CDC2CCC24BE01695F7F4F88EF0E9412
:100F60000B078F81A7019601280F311D411D511DCF
:100F7000288739874A875B878091C0029091C10298
:100F800029813A814B815C81281B390B4109510928
:100F9000A091BE02B091BF020E94E6114B015C011C
:100FA000AFE0B594A79497948794AA95D1F76091F0
:100FB000C8027091C902072E000C880B990BBBE088
:100FC000660F771F881F991FBA95D1F72091CA0223
:100FD0003091CB02032E000C440B550B280D391D0C
:100FE0004A1D5B1D0E94C711820E931EA41EB51ED2
:100FF00030EA831A3FE0930AA108B108A5019401E1
:10100000C501B4010E9495112B013C018CE075943F
:101010006794579447948A95D1F7A091BA02B091FA
:10102000BB020E94F1116B017C019DE0F594E794F5
:10103000D794C7949A95D1F7A091C202B091C302F8
:10104000A30192010E94F1119C01552737FD509593
:10105000452F2C0D3D1D4E1D5F1D2E5F3F4F4F4FE9
:101060005F4F62E055954795379527956A95D1F77B
:1010700030584F4F5F4FA091BC02B091BD020E940B
:10108000E6116B017C017FE0F694E794D794C79456
:101090007A95D1F788E090E0831991092885398500
:1010A0004A855B8504C055954795379527958A9560
:1010B000D2F7288739874A875B87A091C402B0910D
:1010C000C502A30192010E94F1112B013C01EBE04A
:1010D0007594679457944794EA95D1F7A091B80214
:1010E000B091B902A50194010E94F111FBE0959520
:1010F000879577956795FA95D1F7460E571E681E26
:10110000791E8091B6029091B702092E000CAA0BAD
:10111000BB0B22E0880F991FAA1FBB1F2A95D1F78E
:10112000840D951DA61DB71D2C013D01032C04C087
:10113000440C551C661C771C0A94D2F732E0430E0F
:10114000511C611C711C32E075946794579447944C
:101150003A95D1F7288539854A855B852419350963
:101160004609570960E573EC80E090E004C095956E
:101170008795779567953A94D2F70E94951197FDD8
:1011800067C0660F771F881F991FA70196010E94ED
:10119000A51169017A019927F7FC9A958F2D7E2D6B
:1011A0006D2D9B01AC010E9495119B01AC01AEED30
:1011B000BBE00E94E6114B015C01A3E4B3EEA70182
:1011C00096010E94F411BC01992777FD9095892F13
:1011D0004501BB2497FCB094AB2C680D791D8A1D8A
:1011E0009B1D6153714F8F4F9F4F44E0959587959D
:1011F000779567954A95D1F76C0D7D1D8E1D9F1DC6
:101200000E94E90E20E030E048EC52E40E94460ED5
:10121000D80154966D937D938D939C93579781E05D
:101220002B960FB6F894DEBF0FBECDBFDF91CF91E6
:101230001F910F91FF90EF90DF90CF90BF90AF90F4
:101240009F908F907F906F905F904F903F90089508
:10125000A70196010E94A51169017A01CC0CDD1C41
:10126000EE1CFF1C98CF0F931F93CF93DF938C013D
:10127000EB0188E2FB0111928A95E9F74BE050E01F
:1012800067E471E0CE010E9433131B8681E090E099
:10129000A0E0B0E08C879D87AE87BF87F80183818F
:1012A0009481A581B681888B998BAA8BBB8B86E0B4
:1012B00090E0A0E0B0E08C8B9D8BAE8BBF8B1CA22E
:1012C0001DA21EA21FA280E090E8A9E8B4E4888FC6
:1012D000998FAA8FBB8F80E090E0A6E9B3E48C8F52
:1012E0009D8FAE8FBF8F8AE097EDA3E2BCE388A30A
:1012F00099A3AAA3BBA3DF91CF911F910F9108954A
:1013000085ED8093BC008091140390911503A0910A
:101310001603B09117030796A11DB11D23E0B695E2
:10132000A795979587952A95D1F72091BC0024FD24
:1013300003C01092120308954091140350911503B5
:101340006091160370911703452B462B472B69F3C9
:101350000097A105B10541F025E32A95F1F70000BA
:101360000197A109B109E1CF809113030C94BC024C
:101370001F920F920FB60F9211242F933F934F930A
:101380005F936F937F938F939F93AF93BF93EF93ED
:10139000FF938CE393E00E944301FF91EF91BF9193
:1013A000AF919F918F917F916F915F914F913F91FD
:1013B0002F910F900FBE0F901F9018951F920F92B4
:1013C0000FB60F9211242F938F939F93EF93FF9358
:1013D000E0914C03F0914D038081E0915203F09134
:1013E000530382FD1BC09081809155038F5F8F73E3
:1013F00020915603821741F0E0915503F0E0E45C40
:10140000FC4F958F80935503FF91EF919F918F91A2
:101410002F910F900FBE0F901F9018958081F4CFE1
:101420001F920F920FB60F9211242F933F938F9319
:101430009F93AF93BF938091A7029091A802A09130
:10144000A902B091AA023091A60223E0230F2D3702
:1014500058F50196A11DB11D2093A6028093A70205
:101460009093A802A093A902B093AA028091AB0224
:101470009091AC02A091AD02B091AE020196A11D77
:10148000B11D8093AB029093AC02A093AD02B093D8
:10149000AE02BF91AF919F918F913F912F910F908D
:1014A0000FBE0F901F90189526E8230F0296A11DDE
:1014B000B11DD2CF1F920F920FB60F9211242F930E
:1014C0003F934F935F936F937F938F939F93AF93CC
:1014D000BF93EF93FF938091B900887F803609F422
:1014E0004AC0F0F5883209F4A7C018F5803109F434
:1014F0009BC0B8F4882309F4F9C0883009F494C07B
:10150000FF91EF91BF91AF919F918F917F916F91DB
:101510005F914F913F912F910F900FBE0F901F90B1
:101520001895883109F488C0803251F780931003F0
:1015300014C0803409F49DC040F48033B9F388337B
:10154000F9F68093100385ECB0C0803509F485C0AE
:10155000883509F496C0883499F60E948009D0CF66
:10156000883909F48CC038F5883729F050F488366A
:1015700011F0803729F683E0809312031092A502C0
:1015800057C0883809F47BC0803919F0803809F0D9
:10159000B7CF8091A502803208F071C0E091A5021A
:1015A00081E08E0F8093A5028091BB00F0E0EB57A5
:1015B000FD4F80833DC0803B39F0E0F4803A09F470
:1015C00079C0883A09F09CCF84E08093120310928E
:1015D000840210928302E091B102F091B202099567
:1015E0008091830281110FC081E080938302109269
:1015F000630209C0803C09F4A6CF883C09F4A3CF5C
:10160000883B09F07DCFE091840281E08E0F8093CA
:101610008402F0E0ED59FD4F80818093BB009091F2
:1016200084028091830229C08091ED028093BB00E7
:1016300085EC8093BC0064CF90910F0380910E03E2
:10164000981758F5E0910F0381E08E0F80930F03F8
:10165000F0E0E251FD4F8081E9CFE0910F0381E09E
:101660008E0F80930F038091BB00F0E0E251FD4F9D
:10167000808390910F0380910E039817C8F285E83C
:10168000D8CFE0910F0381E08E0F80930F038091FC
:10169000BB00F0E0E251FD4F808380911103811186
:1016A0005CCF81E08093EC0284EA8093BC001092CE
:1016B000120326CF85EC8093BC0010921203809118
:1016C000A502803230F4E091A502F0E0EB57FD4F27
:1016D00010826091A50270E0E091AF02F091B0023B
:1016E00085E892E009951092A5020ACF10921003A6
:1016F00034CFECE3F3E01382128288EE93E0A0E0B3
:10170000B0E084839583A683B7832AE031E03183F8
:10171000208325EC30E03587248724EC30E03787C0
:10172000268720EC30E0318B208B21EC30E0338BAE
:10173000228B22EC30E0358B248B26EC30E0378B8B
:10174000268B118E128E138E148EE9EDF3E0138228
:10175000128284839583A683B7838CE191E0918381
:101760008083E5EEF3E08EE291E09183808385E66D
:1017700097E2A0E0B0E083839483A583B6830895C5
:10178000CF93DF93CDB7DEB7AC970FB6F894DEBF3B
:101790000FBECDBF789484B5826084BD84B581606E
:1017A00084BD85B5826085BD85B5816085BD80912C
:1017B0006E00816080936E001092810080918100A4
:1017C000826080938100809181008160809381009C
:1017D000809180008160809380008091B10084605E
:1017E0008093B1008091B00081608093B0008091BF
:1017F0007A00846080937A0080917A00826080937E
:101800007A0080917A00816080937A0080917A00DA
:10181000806880937A001092C100E0914C03F091AF
:101820004D0382E08083E0914803F09149031082E8
:10183000E0914A03F0914B038FEC808310925403A4
:10184000E0915003F091510386E08083E0914E03D4
:10185000F0914F03808180618083E0914E03F0918D
:101860004F03808188608083E0914E03F0914F03A5
:10187000808180688083E0914E03F0914F038081E6
:101880008F7D80838EE491E00E9482058AE391E05F
:101890000E9482051092B4021092B30210921903B2
:1018A00010923B030E949E0283EC90E09093B20260
:1018B0008093B10284EC90E09093B0028093AF02E9
:1018C000BE016F5F7F4F80ED0E940B0789818535D8
:1018D00029F083E691E00E949005FFCF83E080939A
:1018E000B50266EB72E08AEA0E94F20668EB72E0EB
:1018F0008CEA0E94F2066AEB72E08EEA0E94F2061F
:101900006CEB72E080EB0E949C066EEB72E082EB67
:101910000E949C0660EC72E084EB0E949C0662ECE4
:1019200072E086EB0E94F20664EC72E088EB0E94A3
:10193000F20666EC72E08AEB0E94F20668EC72E056
:101940008CEB0E94F2066AEC72E08EEB0E94F206CB
:10195000BE016F5F7F4F85EE93E00E94330980EAFE
:1019600091E00E94820585EC91E00E949005CE01F5
:1019700001960E94820584ED91E00E9490056D859C
:101980007E858F8598890E946E0683EE91E00E9485
:10199000900569897A898B899C890E946E0682EFFD
:1019A00091E00E949005698D7A8D8B8D9C8D42E02F
:1019B0000E94920581E092E00E94820586E092E01A
:1019C0000E9490056D8D7E8D8F8D98A142E00E94C2
:1019D000920581E092E00E94820585E192E00E94FA
:1019E000900569A17AA18BA19CA142E00E94920579
:1019F00081E092E00E94820580EA91E00E948205E7
:101A00008AE391E00E94820564EF71E080E090E05B
:101A10000E94430200E010E0BE016F5F7F4F85EE41
:101A200093E00E94310720E030E0A9016D897E89B2
:101A30008F89988D0E94410E882309F4B2C084E2F8
:101A400092E00E9490056D897E898F89988D42E091
:101A50000E94920581E092E00E948205CE01899663
:101A60000E94CB068091C0029091C10229A53AA59F
:101A70004BA55CA5281B390B41095109A091BE0259
:101A8000B091BF020E94E6116B017C018FE0F594DA
:101A9000E794D794C7948A95D1F76091C802709162
:101AA000C902072E000C880B990B2BE0660F771FDD
:101AB000881F991F2A95D1F72091CA023091CB0235
:101AC000032E000C440B550B2C0D3D1D4E1D5F1DB0
:101AD0000E94C711CA01B9016C0D7D1D8E1D9F1D8D
:101AE000685F7F4F8F4F9F4F34E09595879577952F
:101AF00067953A95D1F70E94E90E6B017C0182E36C
:101B000092E00E94900520E030E040E251E4C701FD
:101B1000B6010E94460E42E00E94920580E492E0E7
:101B20000E94820583E492E00E94900520E030E567
:101B30004DE754E46D897E898F89988D0E94460E09
:101B400021E03EED42E45EE30E940B109B01AC01FC
:101B500060E070E080E89FE30E94D40D20E03AE26C
:101B60004DE257E40E949E0F42E00E94920581E5FB
:101B700092E00E9482058AE391E00E94820568EE6D
:101B800073E080E090E00E9443020115110509F422
:101B900043CF0E942F01882309F43ECF0E9400000A
:101BA0003BCF84E592E0E9CF5058BB27AA270E949B
:101BB000EC0D0C945F0F0E94510F38F00E94580FEB
:101BC00020F039F49F3F19F426F40C944E0F0EF4D4
:101BD000E095E7FB0C94480FE92F0E94700F58F333
:101BE000BA17620773078407950720F079F4A6F502
:101BF0000C94920F0EF4E0950B2EBA2FA02D0B0132
:101C0000B90190010C01CA01A0011124FF27591B41
:101C100099F0593F50F4503E68F11A16F040A22F47
:101C2000232F342F4427585FF3CF469537952795B8
:101C3000A795F0405395C9F77EF41F16BA0B620BB7
:101C4000730B840BBAF09150A1F0FF0FBB1F661FFE
:101C5000771F881FC2F70EC0BA0F621F731F841F41
:101C600048F4879577956795B795F7959E3F08F067
:101C7000B0CF9395880F08F09927EE0F9795879529
:101C800008950E94240F08F481E008950E945A0EDE
:101C90000C945F0F0E94580F58F00E94510F40F0B3
:101CA00029F45F3F29F00C94480F51110C94930FC5
:101CB0000C944E0F0E94700F68F39923B1F35523D3
:101CC00091F3951B550BBB27AA276217730784074F
:101CD00038F09F5F5F4F220F331F441FAA1FA9F3E5
:101CE00035D00E2E3AF0E0E832D091505040E695D3
:101CF000001CCAF72BD0FE2F29D0660F771F881F34
:101D0000BB1F261737074807AB07B0E809F0BB0B26
:101D1000802DBF01FF2793585F4F3AF09E3F51053A
:101D200078F00C94480F0C94930F5F3FE4F3983EC7
:101D3000D4F3869577956795B795F7959F5FC9F723
:101D4000880F911D9695879597F90895E1E0660FA4
:101D5000771F881FBB1F621773078407BA0720F01D
:101D6000621B730B840BBA0BEE1F88F7E095089586
:101D70000E94780F88F09F5798F0B92F9927B75194
:101D8000B0F0E1F0660F771F881F991F1AF0BA951F
:101D9000C9F714C0B13091F00E94920FB1E00895DC
:101DA0000C94920F672F782F8827B85F39F0B93FCE
:101DB000CCF3869577956795B395D9F73EF49095D2
:101DC0008095709561957F4F8F4F9F4F0895E89450
:101DD00009C097FB3EF490958095709561957F4F73
:101DE0008F4F9F4F9923A9F0F92F96E9BB27939521
:101DF000F695879577956795B795F111F8CFFAF431
:101E0000BB0F11F460FF1BC06F5F7F4F8F4F9F4F61
:101E100016C0882311F096E911C0772321F09EE8BF
:101E2000872F762F05C0662371F096E8862F70E025
:101E300060E02AF09A95660F771F881FDAF7880FFF
:101E40009695879597F90895990F0008550FAA0B55
:101E5000E0E8FEEF16161706E807F907C0F01216BD
:101E60001306E407F50798F0621B730B840B950BC0
:101E700039F40A2661F0232B242B252B21F4089515
:101E80000A2609F4A140A6958FEF811D811D0895B2
:101E900097F99F6780E870E060E008959FEF80EC1D
:101EA000089500240A9416161706180609060895C0
:101EB00000240A9412161306140605060895092E26
:101EC0000394000C11F4882352F0BB0F40F4BF2B95
:101ED00011F460FF04C06F5F7F4F8F4F9F4F0895D5
:101EE00057FD9058440F551F59F05F3F71F04795CB
:101EF000880F97FB991F61F09F3F79F087950895B0
:101F0000121613061406551FF2CF4695F1DF08C0CE
:101F1000161617061806991FF1CF869571056105EB
:101F200008940895E894BB2766277727CB0197F993
:101F300008950E94240F08F48FEF08950E94B10FB6
:101F40000C945F0F0E94510F38F00E94580F20F040
:101F5000952311F00C94480F0C944E0F11240C94FF
:101F6000930F0E94700F70F3959FC1F3950F50E08F
:101F7000551F629FF001729FBB27F00DB11D639F3B
:101F8000AA27F00DB11DAA1F649F6627B00DA11DE1
:101F9000661F829F2227B00DA11D621F739FB00D87
:101FA000A11D621F839FA00D611D221F749F3327F7
:101FB000A00D611D231F849F600D211D822F762F90
:101FC0006A2F11249F5750409AF0F1F088234AF06D
:101FD000EE0FFF1FBB1F661F771F881F91505040D9
:101FE000A9F79E3F510580F00C94480F0C94930F75
:101FF0005F3FE4F3983ED4F3869577956795B79560
:10200000F795E7959F5FC1F7FE2B880F911D969579
:10201000879597F90895FA01EE0FFF1F3096210575
:102020003105A1F16115710561F48038BFE39B07AB
:1020300049F168949038810561F08038BFEF9B07C3
:1020400041F099234AF5FF3FE1053105210519F1DA
:10205000E8940894E795D901AA2329F4AB2FBE2F61
:10206000F85FD0F310C0FF5F70F4A695E0F7F73982
:1020700050F019F0FF3A38F49F779F930DD00F90EE
:1020800007FC9058089546F00C944E0F60E070E005
:1020900080E89FE308954FE79F775F934F933F93C7
:1020A0002F930E940B112F913F914F915F910E94AE
:1020B0009E0F0C9468100E94240F880B990B0895B2
:1020C00029F416F00C94480F0C94920F0C944E0FB8
:1020D0000E94780FA8F39638A0F707F80F92E894BB
:1020E0002BE33AEA48EB5FE70E94B40F0F920F929E
:1020F0000F924DB75EB70F920E945311E8E6F0E0E1
:102100000E949A104F915F91EF91FF91E595EE1F1C
:10211000FF1F49F0FE57E0684427EE0F441FFA9571
:10212000E1F74195550B0E94CD100F9007FE0C94DE
:10213000C1100895DF93CF931F930F93FF92EF92F7
:10214000DF927B018C01689406C0DA2EEF010E94B9
:10215000B10FFE01E894A5912591359145915591D6
:10216000A6F3EF010E94EC0DFE019701A801DA949D
:1021700069F7DF90EF90FF900F911F91CF91DF9162
:1021800008959B01AC0160E070E080E89FE30C944F
:10219000460E0C94480F0C9487110E94780FD8F3C8
:1021A0009923C9F3940F511DA3F39150504094F01B
:1021B00059F0882332F0660F771F881F91505040E6
:1021C000C1F79E3F51052CF7880F911D9695879575
:1021D00097F908955F3FACF0983E9CF0BB27869539
:1021E00077956795B79508F4B1609395C1F7BB0FE4
:1021F00058F711F460FFE8CF6F5F7F4F8F4F9F4F0D
:10220000E3CF0C94930F16F00C9487110C944E0F9F
:1022100068940C94480F0E94780FA8F39923C1F397
:10222000AEF3DF93CF931F930F93FF92C92FDD2758
:1022300088232AF02197660F771F881FDAF720E09E
:1022400030E040E85FEB9FE3883920F0803E38F0D3
:1022500021968F770E94D50DE0E9F0E004C00E943E
:10226000D50DEDEBF0E00E949A108B01BE01EC0160
:10227000FB2E6F5771097595771F880B990B0E947C
:10228000E90E28E132E741E35FE30E94B10FAF2D91
:102290009801AE01FF900F911F91CF91DF910E94A5
:1022A000EC0D0C945F0FFA01DC01AA0FBB1F9B0120
:1022B000AC01BF5728F4222733274427507820C089
:1022C000B75190F4AB2F0024469537952795011C04
:1022D000A395D2F3002071F0220F331F441FB39552
:1022E000DAF30ED00C94D40D61307105A0E88A07A2
:1022F000B94630F49B01AC01662777278827907890
:10230000309621F0208331834283538308959F3F89
:1023100031F0915020F4879577956795B795880FA0
:10232000911D9695879597F90895DB018F939F935B
:102330000E94E611BF91AF91A29F800D911DA39FB6
:10234000900DB29F900D11240895A1E21A2EAA1BA0
:10235000BB1BFD010DC0AA1FBB1FEE1FFF1FA21755
:10236000B307E407F50720F0A21BB30BE40BF50B52
:10237000661F771F881F991F1A9469F760957095DB
:10238000809590959B01AC01BD01CF010895052E6C
:1023900097FB1EF400940E94DE1157FD07D00E94A7
:1023A000A51107FC03D04EF40C94DE115095409516
:1023B000309521953F4F4F4F5F4F089590958095F1
:1023C000709561957F4F8F4F9F4F08950E94FF1129
:1023D000A59F900DB49F900DA49F800D911D112479
:1023E0000895B7FF0C94E6110E94E611821B930B2F
:1023F0000895EE0FFF1F0590F491E02D0994A29F20
:10240000B001B39FC001A39F700D811D1124911DC8
:10241000B29F700D811D1124911D08950F931F937C
:10242000CF93DF938230910510F482E090E0E09149
:10243000EE03F091EF0330E020E0B0E0A0E0309751
:1024400099F42115310509F44AC0281B390B2430B1
:102450003105D8F58A819B816115710589F1FB01F0
:1024600093838283FE0111C04081518102811381D7
:1024700048175907E0F04817590799F4109761F089
:1024800012960C93129713961C933296CF01DF91FC
:10249000CF911F910F9108950093EE031093EF03D6
:1024A000F4CF2115310551F04217530738F0A90137
:1024B000DB019A01BD01DF01F801C1CFEF01F9CFC6
:1024C0009093EF038093EE03CDCFFE01E20FF31F55
:1024D000819391932250310939832883D7CF20915A
:1024E000EC033091ED03232B41F420910201309154
:1024F00003013093ED032093EC0320910001309110
:1025000001012115310541F42DB73EB74091040179
:1025100050910501241B350BE091EC03F091ED0384
:10252000E217F307A0F42E1B3F0B2817390778F0AA
:10253000AC014E5F5F4F2417350748F04E0F5F1F09
:102540005093ED034093EC03819391939FCFF0E080
:10255000E0E09CCFCF93DF930097E9F0FC01329746
:1025600013821282A091EE03B091EF03ED0130E0EF
:1025700020E01097A1F420813181820F931F2091D8
:10258000EC033091ED032817390709F061C0F0938F
:10259000ED03E093EC03DF91CF910895EA01CE17AC
:1025A000DF07E8F54A815B819E0141155105B1F7CE
:1025B000E901FB83EA8349915991C40FD51FEC17B8
:1025C000FD0761F4808191810296840F951FE901D6
:1025D00099838883828193819B838A83F0E0E0E002
:1025E00012968D919C9113970097B9F52D913C917E
:1025F0001197CD010296820F931F2091EC03309129
:10260000ED032817390739F6309751F51092EF038B
:102610001092EE03B093ED03A093EC03BCCFD383F1
:10262000C28340815181840F951FC817D90761F477
:102630004E5F5F4F88819981480F591F51834083B6
:102640008A819B81938382832115310509F0B0CF64
:10265000F093EF03E093EE039ECFFD01DC01C0CFCA
:1026600013821282D7CFFB01DC014150504048F069
:1026700001900D920020C9F701C01D9241505040B9
:08268000E0F70895F894FFCF84
:102688000000F0038000000000006501C500F200B2
:10269800B20123010101150100000000E604B9049C
:1026A8002E058F04B2049F049004000000007502F8
:1026B8002F077602310733090D0A006E616E006933
:1026C8006E66006F766600424D50303835005072A5
:1026D8006573737572652053656E736F72205465E8
:1026E8007374004F6F6F70732C206E6F20424D50C3
:1026F800303835206465746563746564202E2E2E29
:1027080020436865636B20796F75722077697269F9
:102718006E67206F722049324320414444522100A1
:102728002D2D2D2D2D2D2D2D2D2D2D2D2D2D2D2DD1
:102738002D2D2D2D2D2D2D2D2D2D2D2D2D2D2D2DC1
:102748002D2D2D2D0053656E736F723A2020202099
:1027580020202000447269766572205665723A20FE
:10276800202000556E697175652049443A20202063
:1027780020004D61782056616C75653A2020202034
:102788000020685061004D696E2056616C75653A8D
:1027980020202020005265736F6C7574696F6E3A43
:1027A8002020200050726573737572653A202020CE
:1027B800200054656D70657261747572653A200009
:1027C800204300416C7469747564653A20202020A8
:1027D80000206D0053656E736F72206572726F72A0
:0227E8000000EF
:00000001FF
